{
  "address": "0xe7f1725E7734CE288F8367e1Bb143E90bb3F0512",
  "abi": [
    {
      "inputs": [
        {
          "internalType": "address",
          "name": "adminAddress_",
          "type": "address"
        }
      ],
      "stateMutability": "nonpayable",
      "type": "constructor"
    },
    {
      "anonymous": false,
      "inputs": [
        {
          "indexed": true,
          "internalType": "address",
          "name": "owner",
          "type": "address"
        },
        {
          "indexed": true,
          "internalType": "address",
          "name": "spender",
          "type": "address"
        },
        {
          "indexed": false,
          "internalType": "uint256",
          "name": "value",
          "type": "uint256"
        }
      ],
      "name": "Approval",
      "type": "event"
    },
    {
      "anonymous": false,
      "inputs": [
        {
          "indexed": true,
          "internalType": "address",
          "name": "previousOwner",
          "type": "address"
        },
        {
          "indexed": true,
          "internalType": "address",
          "name": "newOwner",
          "type": "address"
        }
      ],
      "name": "OwnershipTransferred",
      "type": "event"
    },
    {
      "anonymous": false,
      "inputs": [
        {
          "indexed": true,
          "internalType": "address",
          "name": "from",
          "type": "address"
        },
        {
          "indexed": true,
          "internalType": "address",
          "name": "to",
          "type": "address"
        },
        {
          "indexed": false,
          "internalType": "uint256",
          "name": "value",
          "type": "uint256"
        }
      ],
      "name": "Transfer",
      "type": "event"
    },
    {
      "inputs": [
        {
          "internalType": "address",
          "name": "newCommunityWallet_",
          "type": "address"
        },
        {
          "internalType": "address",
          "name": "communityNftAddress_",
          "type": "address"
        }
      ],
      "name": "addCommunity",
      "outputs": [],
      "stateMutability": "nonpayable",
      "type": "function"
    },
    {
      "inputs": [
        {
          "internalType": "address",
          "name": "newMemberAddress_",
          "type": "address"
        },
        {
          "internalType": "address",
          "name": "communityNftAddress_",
          "type": "address"
        }
      ],
      "name": "addCommunityMember",
      "outputs": [],
      "stateMutability": "nonpayable",
      "type": "function"
    },
    {
      "inputs": [
        {
          "internalType": "address",
          "name": "newCommunityWallet_",
          "type": "address"
        },
        {
          "internalType": "address",
          "name": "communityNftAddress_",
          "type": "address"
        }
      ],
      "name": "adminAddCommunity",
      "outputs": [],
      "stateMutability": "nonpayable",
      "type": "function"
    },
    {
      "inputs": [
        {
          "internalType": "address",
          "name": "newMemberAddress_",
          "type": "address"
        }
      ],
      "name": "adminAddCommunityMember",
      "outputs": [],
      "stateMutability": "nonpayable",
      "type": "function"
    },
    {
      "inputs": [
        {
          "internalType": "address",
          "name": "to",
          "type": "address"
        },
        {
          "internalType": "uint256",
          "name": "amount",
          "type": "uint256"
        }
      ],
      "name": "adminMint",
      "outputs": [],
      "stateMutability": "nonpayable",
      "type": "function"
    },
    {
      "inputs": [
        {
          "internalType": "address",
          "name": "owner",
          "type": "address"
        },
        {
          "internalType": "address",
          "name": "spender",
          "type": "address"
        }
      ],
      "name": "allowance",
      "outputs": [
        {
          "internalType": "uint256",
          "name": "",
          "type": "uint256"
        }
      ],
      "stateMutability": "view",
      "type": "function"
    },
    {
      "inputs": [
        {
          "internalType": "address",
          "name": "spender",
          "type": "address"
        },
        {
          "internalType": "uint256",
          "name": "amount",
          "type": "uint256"
        }
      ],
      "name": "approve",
      "outputs": [
        {
          "internalType": "bool",
          "name": "",
          "type": "bool"
        }
      ],
      "stateMutability": "nonpayable",
      "type": "function"
    },
    {
      "inputs": [
        {
          "internalType": "address",
          "name": "account",
          "type": "address"
        }
      ],
      "name": "balanceOf",
      "outputs": [
        {
          "internalType": "uint256",
          "name": "",
          "type": "uint256"
        }
      ],
      "stateMutability": "view",
      "type": "function"
    },
    {
      "inputs": [
        {
          "internalType": "address",
          "name": "",
          "type": "address"
        }
      ],
      "name": "communityMembers",
      "outputs": [
        {
          "internalType": "bool",
          "name": "",
          "type": "bool"
        }
      ],
      "stateMutability": "view",
      "type": "function"
    },
    {
      "inputs": [
        {
          "internalType": "address",
          "name": "to",
          "type": "address"
        },
        {
          "internalType": "uint256",
          "name": "amount",
          "type": "uint256"
        }
      ],
      "name": "communityMint",
      "outputs": [],
      "stateMutability": "nonpayable",
      "type": "function"
    },
    {
      "inputs": [
        {
          "internalType": "address",
          "name": "",
          "type": "address"
        }
      ],
      "name": "communityNftContracts",
      "outputs": [
        {
          "internalType": "bool",
          "name": "",
          "type": "bool"
        }
      ],
      "stateMutability": "view",
      "type": "function"
    },
    {
      "inputs": [
        {
          "internalType": "address",
          "name": "",
          "type": "address"
        }
      ],
      "name": "communityWallets",
      "outputs": [
        {
          "internalType": "bool",
          "name": "",
          "type": "bool"
        }
      ],
      "stateMutability": "view",
      "type": "function"
    },
    {
      "inputs": [],
      "name": "coolingPeriod",
      "outputs": [
        {
          "internalType": "uint256",
          "name": "",
          "type": "uint256"
        }
      ],
      "stateMutability": "view",
      "type": "function"
    },
    {
      "inputs": [],
      "name": "dailyDrip",
      "outputs": [
        {
          "internalType": "uint256",
          "name": "",
          "type": "uint256"
        }
      ],
      "stateMutability": "view",
      "type": "function"
    },
    {
      "inputs": [],
      "name": "decimals",
      "outputs": [
        {
          "internalType": "uint8",
          "name": "",
          "type": "uint8"
        }
      ],
      "stateMutability": "view",
      "type": "function"
    },
    {
      "inputs": [
        {
          "internalType": "address",
          "name": "spender",
          "type": "address"
        },
        {
          "internalType": "uint256",
          "name": "subtractedValue",
          "type": "uint256"
        }
      ],
      "name": "decreaseAllowance",
      "outputs": [
        {
          "internalType": "bool",
          "name": "",
          "type": "bool"
        }
      ],
      "stateMutability": "nonpayable",
      "type": "function"
    },
    {
      "inputs": [],
      "name": "getDrip",
      "outputs": [],
      "stateMutability": "nonpayable",
      "type": "function"
    },
    {
      "inputs": [
        {
          "internalType": "address",
          "name": "spender",
          "type": "address"
        },
        {
          "internalType": "uint256",
          "name": "addedValue",
          "type": "uint256"
        }
      ],
      "name": "increaseAllowance",
      "outputs": [
        {
          "internalType": "bool",
          "name": "",
          "type": "bool"
        }
      ],
      "stateMutability": "nonpayable",
      "type": "function"
    },
    {
      "inputs": [],
      "name": "initialDrip",
      "outputs": [
        {
          "internalType": "uint256",
          "name": "",
          "type": "uint256"
        }
      ],
      "stateMutability": "view",
      "type": "function"
    },
    {
      "inputs": [
        {
          "internalType": "address",
          "name": "memberAddress_",
          "type": "address"
        }
      ],
      "name": "isCommunityMember",
      "outputs": [
        {
          "internalType": "bool",
          "name": "",
          "type": "bool"
        }
      ],
      "stateMutability": "view",
      "type": "function"
    },
    {
      "inputs": [
        {
          "internalType": "address",
          "name": "communityWallet_",
          "type": "address"
        }
      ],
      "name": "isCommunityWallet",
      "outputs": [
        {
          "internalType": "bool",
          "name": "",
          "type": "bool"
        }
      ],
      "stateMutability": "view",
      "type": "function"
    },
    {
      "inputs": [
        {
          "internalType": "address",
          "name": "to",
          "type": "address"
        },
        {
          "internalType": "uint256",
          "name": "amount",
          "type": "uint256"
        }
      ],
      "name": "mint",
      "outputs": [],
      "stateMutability": "nonpayable",
      "type": "function"
    },
    {
      "inputs": [],
      "name": "name",
      "outputs": [
        {
          "internalType": "string",
          "name": "",
          "type": "string"
        }
      ],
      "stateMutability": "view",
      "type": "function"
    },
    {
      "inputs": [],
      "name": "owner",
      "outputs": [
        {
          "internalType": "address",
          "name": "",
          "type": "address"
        }
      ],
      "stateMutability": "view",
      "type": "function"
    },
    {
      "inputs": [
        {
          "internalType": "address",
          "name": "memberAddress_",
          "type": "address"
        }
      ],
      "name": "ownerRemoveCommunityMember",
      "outputs": [],
      "stateMutability": "nonpayable",
      "type": "function"
    },
    {
      "inputs": [
        {
          "internalType": "address",
          "name": "communityWallet_",
          "type": "address"
        },
        {
          "internalType": "address",
          "name": "communityNftAddress_",
          "type": "address"
        }
      ],
      "name": "removeCommunity",
      "outputs": [],
      "stateMutability": "nonpayable",
      "type": "function"
    },
    {
      "inputs": [],
      "name": "renounceOwnership",
      "outputs": [],
      "stateMutability": "nonpayable",
      "type": "function"
    },
    {
      "inputs": [],
      "name": "symbol",
      "outputs": [
        {
          "internalType": "string",
          "name": "",
          "type": "string"
        }
      ],
      "stateMutability": "view",
      "type": "function"
    },
    {
      "inputs": [
        {
          "internalType": "address",
          "name": "",
          "type": "address"
        }
      ],
      "name": "timeUntilDailyDrip",
      "outputs": [
        {
          "internalType": "uint256",
          "name": "",
          "type": "uint256"
        }
      ],
      "stateMutability": "view",
      "type": "function"
    },
    {
      "inputs": [],
      "name": "totalSupply",
      "outputs": [
        {
          "internalType": "uint256",
          "name": "",
          "type": "uint256"
        }
      ],
      "stateMutability": "view",
      "type": "function"
    },
    {
      "inputs": [
        {
          "internalType": "address",
          "name": "to",
          "type": "address"
        },
        {
          "internalType": "uint256",
          "name": "amount",
          "type": "uint256"
        }
      ],
      "name": "transfer",
      "outputs": [
        {
          "internalType": "bool",
          "name": "",
          "type": "bool"
        }
      ],
      "stateMutability": "nonpayable",
      "type": "function"
    },
    {
      "inputs": [
        {
          "internalType": "address",
          "name": "from",
          "type": "address"
        },
        {
          "internalType": "address",
          "name": "to",
          "type": "address"
        },
        {
          "internalType": "uint256",
          "name": "amount",
          "type": "uint256"
        }
      ],
      "name": "transferFrom",
      "outputs": [
        {
          "internalType": "bool",
          "name": "",
          "type": "bool"
        }
      ],
      "stateMutability": "nonpayable",
      "type": "function"
    },
    {
      "inputs": [
        {
          "internalType": "address",
          "name": "newOwner",
          "type": "address"
        }
      ],
      "name": "transferOwnership",
      "outputs": [],
      "stateMutability": "nonpayable",
      "type": "function"
    }
  ],
  "transactionHash": "0x61e7c8e649922953aafed4816a8140f07fbcb318f30c71c2ccacd7370d6affde",
  "args": [
    "0xF54f4815f62ccC360963329789d62d3497A121Ae"
  ],
  "numDeployments": 1,
  "solcInputHash": "8cd5d2d9902ac71323de7be868e9017f",
  "bytecode": "0x608060405268013f306a2409fc0000600655678ac7230489e80000600755600f6008553480156200002f57600080fd5b50604051620015fa380380620015fa833981016040819052620000529162000175565b6040518060400160405280601581526020017f436f6d6d756e69747920426f756e6420546f6b656e00000000000000000000008152506040518060400160405280600381526020016210d09560ea1b8152508160039081620000b591906200024c565b506004620000c482826200024c565b505050620000e1620000db6200011f60201b60201c565b62000123565b600980546001600160a01b039092166001600160a01b0319909216821790556000908152600a60205260409020805460ff1916600117905562000318565b3390565b600580546001600160a01b038381166001600160a01b0319831681179093556040519116919082907f8be0079c531659141344cd1fd0a4f28419497f9722a3daafe3b4186f6b6457e090600090a35050565b6000602082840312156200018857600080fd5b81516001600160a01b0381168114620001a057600080fd5b9392505050565b634e487b7160e01b600052604160045260246000fd5b600181811c90821680620001d257607f821691505b602082108103620001f357634e487b7160e01b600052602260045260246000fd5b50919050565b601f8211156200024757600081815260208120601f850160051c81016020861015620002225750805b601f850160051c820191505b8181101562000243578281556001016200022e565b5050505b505050565b81516001600160401b03811115620002685762000268620001a7565b6200028081620002798454620001bd565b84620001f9565b602080601f831160018114620002b857600084156200029f5750858301515b600019600386901b1c1916600185901b17855562000243565b600085815260208120601f198616915b82811015620002e957888601518255948401946001909101908401620002c8565b5085821015620003085787850151600019600388901b60f8161c191681555b5050505050600190811b01905550565b6112d280620003286000396000f3fe608060405234801561001057600080fd5b50600436106101fb5760003560e01c806378d7c1b61161011a578063a9059cbb116100ad578063ea3f44d21161007c578063ea3f44d214610475578063eac54f23146104a1578063eee47e0d146104aa578063f0f72d7d146104bd578063f2fde38b146104c657600080fd5b8063a9059cbb14610419578063dae004371461042c578063dd62ed3e1461044f578063e58306f91461046257600080fd5b80639328beee116100e95780639328beee146103ed57806395d89b41146103f6578063994eda4e146103fe578063a457c2d71461040657600080fd5b806378d7c1b61461037c5780638c95aef91461039c5780638da5cb5b146103bf57806390ac55dd146103da57600080fd5b80632f676b65116101925780633ef62d46116101615780633ef62d461461032557806340c10f191461033857806370a082311461034b578063715018a61461037457600080fd5b80632f676b65146102c4578063313ce567146102f057806333c41a47146102ff578063395093511461031257600080fd5b806316fcaf94116101ce57806316fcaf941461027957806318160ddd1461028c5780631eb1e4af1461029e57806323b872dd146102b157600080fd5b806306fdde0314610200578063095ea7b31461021e5780630d226f7614610241578063143c67fc14610256575b600080fd5b6102086104d9565b604051610215919061110a565b60405180910390f35b61023161022c366004611174565b61056b565b6040519015158152602001610215565b61025461024f36600461119e565b610585565b005b61023161026436600461119e565b600b6020526000908152604090205460ff1681565b610254610287366004611174565b6105b9565b6002545b604051908152602001610215565b6102546102ac3660046111b9565b610699565b6102316102bf3660046111ec565b6106fd565b6102316102d236600461119e565b6001600160a01b03166000908152600a602052604090205460ff1690565b60405160128152602001610215565b61025461030d3660046111b9565b610721565b610231610320366004611174565b61089a565b6102546103333660046111b9565b6108bc565b610254610346366004611174565b6108c4565b61029061035936600461119e565b6001600160a01b031660009081526020819052604090205490565b61025461090d565b61029061038a36600461119e565b600d6020526000908152604090205481565b6102316103aa36600461119e565b600a6020526000908152604090205460ff1681565b6005546040516001600160a01b039091168152602001610215565b6102546103e836600461119e565b610921565b61029060085481565b61020861094a565b610254610959565b610231610414366004611174565b610a40565b610231610427366004611174565b610abb565b61023161043a36600461119e565b600c6020526000908152604090205460ff1681565b61029061045d3660046111b9565b610b48565b610254610470366004611174565b610b73565b61023161048336600461119e565b6001600160a01b03166000908152600b602052604090205460ff1690565b61029060075481565b6102546104b83660046111b9565b610b93565b61029060065481565b6102546104d436600461119e565b610bd9565b6060600380546104e890611228565b80601f016020809104026020016040519081016040528092919081815260200182805461051490611228565b80156105615780601f1061053657610100808354040283529160200191610561565b820191906000526020600020905b81548152906001019060200180831161054457829003601f168201915b5050505050905090565b600033610579818585610c4f565b60019150505b92915050565b6001600160a01b0381166000908152600a60205260409020805460ff191660011790556006546105b6908290610d73565b50565b6105c233610483565b6106135760405162461bcd60e51b815260206004820152601e60248201527f4342543a204f6e6c7920436f6d6d756e6974696573204d756c7469736967000060448201526064015b60405180910390fd5b6001600160a01b0382166000908152600a602052604090205460ff1661068b5760405162461bcd60e51b815260206004820152602760248201527f4342543a2043616e206d696e74206f6e6c7920746f20636f6d6d756e697479206044820152666d656d6265727360c81b606482015260840161060a565b6106958282610d73565b5050565b6009546001600160a01b0316336001600160a01b0316146106b957600080fd5b6001600160a01b039182166000908152600b602090815260408083208054600160ff199182168117909255949095168352600c909152902080549091169091179055565b60003361070b858285610e32565b610716858585610eac565b506001949350505050565b6001600160a01b0381166000908152600c602052604090205460ff1661079a5760405162461bcd60e51b815260206004820152602860248201527f4342543a20436f6d6d756e697479204d656d6265727368697020646f6573206e6044820152671bdd08195e1a5cdd60c21b606482015260840161060a565b6040516370a0823160e01b81526001600160a01b0383811660048301528216906370a0823190602401602060405180830381865afa1580156107e0573d6000803e3d6000fd5b505050506040513d601f19601f820116820180604052508101906108049190611262565b6001146108695760405162461bcd60e51b815260206004820152602d60248201527f4342543a2043616c6c657220646f6573206e6f74206f776e20436f6d6d756e6960448201526c07479204d656d6265727368697609c1b606482015260840161060a565b6001600160a01b0382166000908152600a60205260409020805460ff19166001179055600654610695908390610d73565b6000336105798185856108ad8383610b48565b6108b7919061127b565b610c4f565b6106b9611050565b6108cd336102d2565b6106135760405162461bcd60e51b81526020600482015260116024820152704342543a204f6e6c79204d656d6265727360781b604482015260640161060a565b610915611050565b61091f60006110aa565b565b610929611050565b6001600160a01b03166000908152600b60205260409020805460ff19169055565b6060600480546104e890611228565b610962336102d2565b6109a25760405162461bcd60e51b81526020600482015260116024820152704342543a204f6e6c79204d656d6265727360781b604482015260640161060a565b336000818152600d6020526040902054421015610a0b5760405162461bcd60e51b815260206004820152602160248201527f4342543a20436f6f6c696e6720706572696f6420686173206e6f7420656e64656044820152601960fa1b606482015260840161060a565b610a1781600754610d73565b600854610a24904261127b565b6001600160a01b039091166000908152600d6020526040902055565b60003381610a4e8286610b48565b905083811015610aae5760405162461bcd60e51b815260206004820152602560248201527f45524332303a2064656372656173656420616c6c6f77616e63652062656c6f77604482015264207a65726f60d81b606482015260840161060a565b6107168286868403610c4f565b6001600160a01b0382166000908152600a602052604081205460ff16610b375760405162461bcd60e51b815260206004820152602b60248201527f4342543a2043616e207472616e73666572206f6e6c7920746f20636f6d6d756e60448201526a697479206d656d6265727360a81b606482015260840161060a565b610b4183836110fc565b9392505050565b6001600160a01b03918216600090815260016020908152604080832093909416825291909152205490565b6009546001600160a01b0316336001600160a01b03161461061357600080fd5b610b9b611050565b6001600160a01b039182166000908152600b60209081526040808320805460ff19908116909155939094168252600c90529190912080549091169055565b610be1611050565b6001600160a01b038116610c465760405162461bcd60e51b815260206004820152602660248201527f4f776e61626c653a206e6577206f776e657220697320746865207a65726f206160448201526564647265737360d01b606482015260840161060a565b6105b6816110aa565b6001600160a01b038316610cb15760405162461bcd60e51b8152602060048201526024808201527f45524332303a20617070726f76652066726f6d20746865207a65726f206164646044820152637265737360e01b606482015260840161060a565b6001600160a01b038216610d125760405162461bcd60e51b815260206004820152602260248201527f45524332303a20617070726f766520746f20746865207a65726f206164647265604482015261737360f01b606482015260840161060a565b6001600160a01b0383811660008181526001602090815260408083209487168084529482529182902085905590518481527f8c5be1e5ebec7d5bd14f71427d1e84f3dd0314c0f7b2291e5b200ac8c7c3b925910160405180910390a3505050565b6001600160a01b038216610dc95760405162461bcd60e51b815260206004820152601f60248201527f45524332303a206d696e7420746f20746865207a65726f206164647265737300604482015260640161060a565b8060026000828254610ddb919061127b565b90915550506001600160a01b038216600081815260208181526040808320805486019055518481527fddf252ad1be2c89b69c2b068fc378daa952ba7f163c4a11628f55a4df523b3ef910160405180910390a35050565b6000610e3e8484610b48565b90506000198114610ea65781811015610e995760405162461bcd60e51b815260206004820152601d60248201527f45524332303a20696e73756666696369656e7420616c6c6f77616e6365000000604482015260640161060a565b610ea68484848403610c4f565b50505050565b6001600160a01b038316610f105760405162461bcd60e51b815260206004820152602560248201527f45524332303a207472616e736665722066726f6d20746865207a65726f206164604482015264647265737360d81b606482015260840161060a565b6001600160a01b038216610f725760405162461bcd60e51b815260206004820152602360248201527f45524332303a207472616e7366657220746f20746865207a65726f206164647260448201526265737360e81b606482015260840161060a565b6001600160a01b03831660009081526020819052604090205481811015610fea5760405162461bcd60e51b815260206004820152602660248201527f45524332303a207472616e7366657220616d6f756e7420657863656564732062604482015265616c616e636560d01b606482015260840161060a565b6001600160a01b03848116600081815260208181526040808320878703905593871680835291849020805487019055925185815290927fddf252ad1be2c89b69c2b068fc378daa952ba7f163c4a11628f55a4df523b3ef910160405180910390a3610ea6565b6005546001600160a01b0316331461091f5760405162461bcd60e51b815260206004820181905260248201527f4f776e61626c653a2063616c6c6572206973206e6f7420746865206f776e6572604482015260640161060a565b600580546001600160a01b038381166001600160a01b0319831681179093556040519116919082907f8be0079c531659141344cd1fd0a4f28419497f9722a3daafe3b4186f6b6457e090600090a35050565b600033610579818585610eac565b600060208083528351808285015260005b818110156111375785810183015185820160400152820161111b565b506000604082860101526040601f19601f8301168501019250505092915050565b80356001600160a01b038116811461116f57600080fd5b919050565b6000806040838503121561118757600080fd5b61119083611158565b946020939093013593505050565b6000602082840312156111b057600080fd5b610b4182611158565b600080604083850312156111cc57600080fd5b6111d583611158565b91506111e360208401611158565b90509250929050565b60008060006060848603121561120157600080fd5b61120a84611158565b925061121860208501611158565b9150604084013590509250925092565b600181811c9082168061123c57607f821691505b60208210810361125c57634e487b7160e01b600052602260045260246000fd5b50919050565b60006020828403121561127457600080fd5b5051919050565b8082018082111561057f57634e487b7160e01b600052601160045260246000fdfea264697066735822122049402a1c71986651d7e660e22773c5d2a815467dad56d352709bca19bad3ad1e64736f6c63430008110033",
  "devdoc": {
    "kind": "dev",
    "methods": {
      "allowance(address,address)": {
        "details": "See {IERC20-allowance}."
      },
      "approve(address,uint256)": {
        "details": "See {IERC20-approve}. NOTE: If `amount` is the maximum `uint256`, the allowance is not updated on `transferFrom`. This is semantically equivalent to an infinite approval. Requirements: - `spender` cannot be the zero address."
      },
      "balanceOf(address)": {
        "details": "See {IERC20-balanceOf}."
      },
      "decimals()": {
        "details": "Returns the number of decimals used to get its user representation. For example, if `decimals` equals `2`, a balance of `505` tokens should be displayed to a user as `5.05` (`505 / 10 ** 2`). Tokens usually opt for a value of 18, imitating the relationship between Ether and Wei. This is the value {ERC20} uses, unless this function is overridden; NOTE: This information is only used for _display_ purposes: it in no way affects any of the arithmetic of the contract, including {IERC20-balanceOf} and {IERC20-transfer}."
      },
      "decreaseAllowance(address,uint256)": {
        "details": "Atomically decreases the allowance granted to `spender` by the caller. This is an alternative to {approve} that can be used as a mitigation for problems described in {IERC20-approve}. Emits an {Approval} event indicating the updated allowance. Requirements: - `spender` cannot be the zero address. - `spender` must have allowance for the caller of at least `subtractedValue`."
      },
      "increaseAllowance(address,uint256)": {
        "details": "Atomically increases the allowance granted to `spender` by the caller. This is an alternative to {approve} that can be used as a mitigation for problems described in {IERC20-approve}. Emits an {Approval} event indicating the updated allowance. Requirements: - `spender` cannot be the zero address."
      },
      "name()": {
        "details": "Returns the name of the token."
      },
      "owner()": {
        "details": "Returns the address of the current owner."
      },
      "renounceOwnership()": {
        "details": "Leaves the contract without owner. It will not be possible to call `onlyOwner` functions anymore. Can only be called by the current owner. NOTE: Renouncing ownership will leave the contract without an owner, thereby removing any functionality that is only available to the owner."
      },
      "symbol()": {
        "details": "Returns the symbol of the token, usually a shorter version of the name."
      },
      "totalSupply()": {
        "details": "See {IERC20-totalSupply}."
      },
      "transfer(address,uint256)": {
        "details": "See {IERC20-transfer}. Requirements: - `to` cannot be the zero address. - the caller must have a balance of at least `amount`."
      },
      "transferFrom(address,address,uint256)": {
        "details": "See {IERC20-transferFrom}. Emits an {Approval} event indicating the updated allowance. This is not required by the EIP. See the note at the beginning of {ERC20}. NOTE: Does not update the allowance if the current allowance is the maximum `uint256`. Requirements: - `from` and `to` cannot be the zero address. - `from` must have a balance of at least `amount`. - the caller must have allowance for ``from``'s tokens of at least `amount`."
      },
      "transferOwnership(address)": {
        "details": "Transfers ownership of the contract to a new account (`newOwner`). Can only be called by the current owner."
      }
    },
    "version": 1
  },
  "userdoc": {
    "kind": "user",
    "methods": {},
    "version": 1
  },
  "storageLayout": {
    "storage": [
      {
        "astId": 128,
        "contract": "contracts/CommunityBoundERC20.sol:CommunityBoundERC20",
        "label": "_balances",
        "offset": 0,
        "slot": "0",
        "type": "t_mapping(t_address,t_uint256)"
      },
      {
        "astId": 134,
        "contract": "contracts/CommunityBoundERC20.sol:CommunityBoundERC20",
        "label": "_allowances",
        "offset": 0,
        "slot": "1",
        "type": "t_mapping(t_address,t_mapping(t_address,t_uint256))"
      },
      {
        "astId": 136,
        "contract": "contracts/CommunityBoundERC20.sol:CommunityBoundERC20",
        "label": "_totalSupply",
        "offset": 0,
        "slot": "2",
        "type": "t_uint256"
      },
      {
        "astId": 138,
        "contract": "contracts/CommunityBoundERC20.sol:CommunityBoundERC20",
        "label": "_name",
        "offset": 0,
        "slot": "3",
        "type": "t_string_storage"
      },
      {
        "astId": 140,
        "contract": "contracts/CommunityBoundERC20.sol:CommunityBoundERC20",
        "label": "_symbol",
        "offset": 0,
        "slot": "4",
        "type": "t_string_storage"
      },
      {
        "astId": 7,
        "contract": "contracts/CommunityBoundERC20.sol:CommunityBoundERC20",
        "label": "_owner",
        "offset": 0,
        "slot": "5",
        "type": "t_address"
      },
      {
        "astId": 968,
        "contract": "contracts/CommunityBoundERC20.sol:CommunityBoundERC20",
        "label": "initialDrip",
        "offset": 0,
        "slot": "6",
        "type": "t_uint256"
      },
      {
        "astId": 975,
        "contract": "contracts/CommunityBoundERC20.sol:CommunityBoundERC20",
        "label": "dailyDrip",
        "offset": 0,
        "slot": "7",
        "type": "t_uint256"
      },
      {
        "astId": 978,
        "contract": "contracts/CommunityBoundERC20.sol:CommunityBoundERC20",
        "label": "coolingPeriod",
        "offset": 0,
        "slot": "8",
        "type": "t_uint256"
      },
      {
        "astId": 980,
        "contract": "contracts/CommunityBoundERC20.sol:CommunityBoundERC20",
        "label": "_admin",
        "offset": 0,
        "slot": "9",
        "type": "t_address"
      },
      {
        "astId": 984,
        "contract": "contracts/CommunityBoundERC20.sol:CommunityBoundERC20",
        "label": "communityMembers",
        "offset": 0,
        "slot": "10",
        "type": "t_mapping(t_address,t_bool)"
      },
      {
        "astId": 988,
        "contract": "contracts/CommunityBoundERC20.sol:CommunityBoundERC20",
        "label": "communityWallets",
        "offset": 0,
        "slot": "11",
        "type": "t_mapping(t_address,t_bool)"
      },
      {
        "astId": 992,
        "contract": "contracts/CommunityBoundERC20.sol:CommunityBoundERC20",
        "label": "communityNftContracts",
        "offset": 0,
        "slot": "12",
        "type": "t_mapping(t_address,t_bool)"
      },
      {
        "astId": 996,
        "contract": "contracts/CommunityBoundERC20.sol:CommunityBoundERC20",
        "label": "timeUntilDailyDrip",
        "offset": 0,
        "slot": "13",
        "type": "t_mapping(t_address,t_uint256)"
      }
    ],
    "types": {
      "t_address": {
        "encoding": "inplace",
        "label": "address",
        "numberOfBytes": "20"
      },
      "t_bool": {
        "encoding": "inplace",
        "label": "bool",
        "numberOfBytes": "1"
      },
      "t_mapping(t_address,t_bool)": {
        "encoding": "mapping",
        "key": "t_address",
        "label": "mapping(address => bool)",
        "numberOfBytes": "32",
        "value": "t_bool"
      },
      "t_mapping(t_address,t_mapping(t_address,t_uint256))": {
        "encoding": "mapping",
        "key": "t_address",
        "label": "mapping(address => mapping(address => uint256))",
        "numberOfBytes": "32",
        "value": "t_mapping(t_address,t_uint256)"
      },
      "t_mapping(t_address,t_uint256)": {
        "encoding": "mapping",
        "key": "t_address",
        "label": "mapping(address => uint256)",
        "numberOfBytes": "32",
        "value": "t_uint256"
      },
      "t_string_storage": {
        "encoding": "bytes",
        "label": "string",
        "numberOfBytes": "32"
      },
      "t_uint256": {
        "encoding": "inplace",
        "label": "uint256",
        "numberOfBytes": "32"
      }
    }
  }
}